:020000040800F2
:1000000000000520D12E0108212F0108212F010811
:10001000212F0108212F0108212F010800000000D5
:10002000000000000000000000000000D18F000868
:10003000212F0108000000007190000851270008DE
:10004000212F0108212F0108212F0108212F01084C
:10005000212F0108212F0108212F0108212F01083C
:10006000212F0108212F0108212F0108212F01082C
:10007000212F0108212F0108212F0108212F01081C
:10008000212F0108212F0108212F0108212F01080C
:10009000212F0108212F0108212F0108212F0108FC
:1000A000212F0108212F0108212F0108212F0108EC
:1000B000212F0108212F0108212F0108212F0108DC
:1000C000212F0108212F0108212F0108212F0108CC
:1000D000212F0108212F0108212F0108212F0108BC
:1000E000212F0108212F0108212F0108212F0108AC
:1000F000212F0108212F0108212F0108212F01089C
:10010000212F0108212F0108212F0108212F01088B
:10011000212F0108212F010859270008212F01084C
:10012000212F0108212F0108212F0108212F01086B
:10013000212F010869270008212F0108212F01081C
:10014000212F0108212F0108212F010879270008FC
:10015000212F0108212F0108212F0108212F01083B
:10016000212F0108212F0108212F0108212F01082B
:10017000212F010889270008212F01080000000015
:10018000212F0108212F0108212F0108212F01080B
:10019000212F0108212F0108212F0108212F0108FB
:1001A00099270008212F0108A9270008212F0108FD
:1001B000212F0108212F0108212F0108212F0108DB
:0801C000212F0108212F010885
:1001D00010B5054C237833B9044B13B10448AFF381
:1001E00000800123237010BD980000200000000053
:1001F000003E010808B5034B1BB103490348AFF3A8
:10020000008008BD000000009C000020003E0108A6
:1002100001F0FF01102A2BDB10F0070F08D010F8B7
:10022000013B013A8B422DD010F0070F42B3F6D1BB
:10023000F0B441EA012141EA014122F007047FF0D4
:1002400000070023F0E80256083C85EA010586EA2B
:10025000010685FA47F5A3FA87F586FA47F6A5FA67
:1002600087F68EB9EED1F0BC01F0FF0102F0070273
:1002700032B110F8013B013A83EA010313B1F8D11E
:100280000020704701387047002D06BF35460338FF
:10029000073815F0010F07D1013015F4807F02BF38
:1002A000013015F4C03F0130F0BC0138704700BF89
:1002B00053B94AB9002908BF00281CBF4FF0FF31CD
:1002C0004FF0FF3000F072B9ADF1080C6DE904CECB
:1002D00000F006F8DDF804E0DDE9022304B0704721
:1002E0002DE9F047089E04468846002B4BD18A42F0
:1002F000154667D9B2FA82F24AB1C2F1200701FA73
:1003000002F320FA07F7954047EA030894404FEAC2
:10031000154E230CB8FBFEF71FFA85FC0EFB178861
:1003200043EA084307FB0CF1994209D9EB1807F19E
:10033000FF3080F01B81994240F21881023F2B442C
:100340005B1AA4B2B3FBFEF00EFB103344EA034485
:1003500000FB0CFCA44509D92C1900F1FF3380F0F7
:100360000781A44540F2048102382C4440EA07404A
:10037000A4EB0C0400271EB1D4400023C6E90043BF
:100380003946BDE8F0878B4209D9002E00F0EB809A
:100390000027C6E9000138463946BDE8F087B3FAC0
:1003A00083F7002F47D18B4202D3824200F2FA80BA
:1003B000841A61EB030301209846002EE0D0C6E9C1
:1003C0000048DDE702B9FFDEB2FA82F2002A40F00F
:1003D0008F80491B4FEA154E1FFA85F80127B1FBA4
:1003E000FEFC230C0EFB1C1143EA014308FB0CF13D
:1003F000994207D9EB180CF1FF3002D2994200F272
:10040000CD808446591AA3B2B1FBFEF00EFB101446
:1004100043EA044408FB00F8A04507D92C1900F171
:10042000FF3302D2A04500F2B6801846A4EB0804C0
:1004300040EA0C409FE7C7F1200CBB4022FA0CFEBB
:100440004EEA030E01FA07F420FA0CF521FA0CF338
:100450004FEA1E482543B3FBF8F92C0C08FB19336F
:100460001FFA8EFA44EA034309FB0AF49C4202FA9B
:1004700007F200FA07F10BD91EEB030309F1FF3075
:1004800080F087809C4240F28480A9F10209734485
:100490001B1BADB2B3FBF8F008FB103345EA034475
:1004A00000FB0AFAA24508D91EEB040400F1FF3351
:1004B0006BD2A24569D90238744440EA0940A0FBD6
:1004C0000289A4EB0A044C45C2464B4654D351D092
:1004D000002E69D0B1EB0A0564EB030404FA0CFCAE
:1004E000FD40FC404CEA0505C6E90054002747E7FB
:1004F000C2F1200320FA03F7954001FA02F021FA35
:1005000003F34FEA154E3843010CB3FBFEF71FFA15
:1005100085F80EFB173341EA034107FB08F38B42D2
:1005200004FA02F407D9691807F1FF3C2FD28B4275
:100530002DD9023F2944CB1A81B2B3FBFEF00EFB4A
:10054000103341EA034100FB08F38B4207D96918D5
:1005500000F1FF3C17D28B4215D902382944C91A41
:1005600040EA07473BE73746304609E70746E7E6F4
:100570001846FBE64145ABD2B8EB020A69EB0E0226
:1005800001381346A4E76046E9E7184695E7674651
:10059000D1E781467CE702382C4447E7ACF1020CF6
:1005A0002B442FE7384608E73746E9E6704700BF97
:1005B00008B50268034B9A4200D008BD08F00EFB54
:1005C000FBE700BF00100040FEE7000000B5B5B03B
:1005D000464B1A6C42F080521A641B6C03F0805335
:1005E0000093009B424B1A6842F440421A601B6819
:1005F00003F440430193019B092328934FF4803275
:10060000299201222D9202222E924FF480012F91E5
:10061000192130914FF4C87131913292339328A847
:1006200007F060FA002850D108F08EFA002850D167
:100630000F23239302232493002325934FF4A053E5
:1006400026934FF480532793062123A807F088FCB4
:10065000002842D1274B029364230393022306937D
:10066000049305934FF4C0720792052209920893F0
:1006700003230A9301230B930C934FF400330D9340
:100680004FF400730E9300231293139318931B934C
:100690001D934FF000622192229302A807F056FDAD
:1006A000F8B907F00FFD144BA3FB0030800904F0EC
:1006B0007BF8042004F08EF800220F214FF0FF3069
:1006C00004F034F835B05DF804FBD1210B48FFF796
:1006D0007BFFD8210948FFF777FFE6210748FFF79E
:1006E00073FF40F203110548FFF76EFF0038024028
:1006F000007000406848B101D34D6210643E0108AB
:1007000008B508F05FFAFFF761FF00F039F800F074
:1007100053F900F0B7F900F0E5F900F0B9FC00F08A
:10072000EBFC01F0A9F801F01BF901F0ABF901F0C5
:1007300059FA01F09BFA01F0DBFA01F047FC01F0F5
:10074000BDFC01F00DFD01F05FFD01F02DFB01F09E
:10075000B3FD01F0E3FD01F001FE01F0DBFF00F06D
:1007600039FA00F039FC00F045FD00F07DFC09F09D
:100770000AFF07220521032012F0A0FBF9E7000081
:100780002DE9F04F91B0824B1A6B42F010021A63C0
:100790001A6B02F010020092009A1A6B42F04002AB
:1007A0001A631A6B02F040020192019A1A6B42F02E
:1007B00002021A631A6B02F002020292029A1A6B88
:1007C00042F008021A631A6B02F008020392039ABD
:1007D0001A6B42F004021A631A6B02F004020492CC
:1007E000049A1A6B42F001021A631A6B02F00102BA
:1007F0000592059A1A6B42F400721A631A6B02F49E
:1008000000720692069A1A6B42F480721A631A6B8F
:1008100002F480720792079A1A6B42F480621A639C
:100820001A6B02F480620892089A1A6B42F0200256
:100830001A631A6B02F020020992099A1A6B42F0AD
:1008400080021A631B6B03F080030A930A9B514FCB
:1008500001222021384608F01EF94F4E00220C21BB
:10086000304608F018F9012208214C4808F013F925
:1008700001224FF48051304608F00DF9DFF8309135
:1008800000224FF40051484608F005F90022C82123
:10089000434808F000F94FF0080BCDF82CB00024C5
:1008A0000C940D940BA93F4807F0FEFF4FF48053C2
:1008B0000B930C940D940BA93B4807F0F5FF4023D4
:1008C0000B93DFF8F0A0CDF830A00D940BA93846BB
:1008D00007F0EAFF20230B9301250C950D940E944D
:1008E0000BA9384607F0E0FF41F20C030B930C957F
:1008F0000D940E940BA9304607F0D6FF4FF4005824
:10090000CDF82C800C940D940BA9284807F0CCFF4F
:10091000CDF82CB00C950D940E940BA91F4807F040
:10092000C3FF10230B930C940D940BA9384607F0CA
:10093000BBFF48F204030B930C940D940BA948469B
:1009400007F0B2FFCDF82C800C950D940E940BA9F6
:10095000484607F0A9FFCDF82C80CDF830A00D94C3
:100960000BA9304607F0A0FFC8230B930C950D94FC
:100970000E940BA90A4807F097FF04230B930C94DD
:100980000D940BA9064807F08FFF11B0BDE8F08F5A
:1009900000380240000C02400020024000280240C3
:1009A00000180240001002400024024000080240EB
:1009B000001C02400000121000B585B01648174B0D
:1009C00003604FF4803343600023836003618361DD
:1009D0000362C362124A8262C3600122C26103637E
:1009E000426103F091FD68B9042300930123019350
:1009F000002302936946084803F0B0FD38B905B0FA
:100A00005DF804FB52210748FFF7DEFDECE75C21AF
:100A10000448FFF7D9FDF2E7D88300200022014007
:100A20000100000F703E01080268134B9A4200D08B
:100A3000704730B587B003F58B335A6C42F480624F
:100A40005A645B6C03F480630093009B4FF4F8637B
:100A50000193032502950024039401A9074807F098
:100A600023FF012301930295039401A9044807F091
:100A70001BFF07B030BD00BF002201400014024040
:100A80000000024008B50948094B036000230371C8
:100A90004371436183610123036203F0ABFE00B93C
:100AA00008BD47210348FFF78FFDF9E720840020A8
:100AB000003002407C3E01080268094B9A4200D097
:100AC000704782B003F500631A6B42F480521A63D8
:100AD0001B6B03F480530193019B02B0704700BF6E
:100AE0000030024008B50C480C4B03600023436003
:100AF0008360C36003614361836103624362836215
:100B0000C362036303F0E2FE00B908BD4F2104484D
:100B1000FFF75AFDF9E700BF4484002000000550AC
:100B2000883E01080268244B9A4200D0704770B595
:100B300086B0224B5A6B42F001025A635B6B03F0A2
:100B400001030093009B6023019302260296002478
:100B5000039404940D25059501A9194807F0A4FEF6
:100B600008230193029603940494059501A915485E
:100B700007F09AFE4FF400730193029603940494D5
:100B8000059501A9104807F08FFE4FF4BC4301936F
:100B9000029603940494059501A90C4807F084FE7D
:100BA00050230193029603940494059501A90848E3
:100BB00007F07AFE06B070BD000005500038024014
:100BC00000100240000C024000180240001C0240CD
:100BD0000000024008B50F480F4B0360002343603C
:100BE0008360C3608362C3620363436303F0BAFE3E
:100BF00028B90121074803F083FF28B908BD49211E
:100C00000648FFF7E1FCF4E74E210448FFF7DCFC5F
:100C1000F4E700BF9484002000B00240943E010835
:100C200002680E4B9A4200D0704700B583B0A3F51E
:100C3000F0431A6B42F400021A631B6B03F40003C7
:100C40000193019B002205215A2003F06FFD5A20D9
:100C500003F09EFD03B05DF804FB00BF00B002404E
:100C600008B513460A460146024805F0E9FB00B103
:100C7000012008BD54BD002008B513460A460146B0
:100C8000024805F065FC00B1012008BD54BD0020FC
:100C900008B5034805F02EFF043818BF012008BD31
:100CA00054BD002008B50146014805F0C1FE08BD4D
:100CB00054BD002008B500F0FDF808BD00B583B0B4
:100CC00001238DF8073000F00FF910B900238DF8DB
:100CD00007309DF8070003B05DF804FB10B5FFF77F
:100CE000EDFF012802D00224204610BD074805F080
:100CF00086FE04460028F7D14FF40061034805F052
:100D0000A9FE0028F0D00124EEE700BF54BD00206A
:100D100008B5074B01221A70FFF7BAFF20B9044A41
:100D2000137803F0FE031370014B187808BD00BF61
:100D30000000002010B582B00446124B01221A7048
:100D400009F026FC18B90F4B187802B010BDFFF758
:100D5000C5FF88B10B4B1B78DBB2012BF3D00A4ADD
:100D60006B4692E8030083E803000021184609F06F
:100D700031FD064B1860E6E72046FFF7C9FF014B3F
:100D80001870E7E700000020183E0108B4000020BA
:100D900008B5FFF7BDFF08BD10B584B00846114681
:100DA0001A46FFF75DFF10B1012004B010BD47F2F5
:100DB0003052104B196801A809F048FD019B102B17
:100DC00001D00120F1E7029B012B01D00120ECE7CB
:100DD00009F0E7FB47F23054044409F0E2FBA0427B
:100DE00005D2FFF755FF0028F7D10020DDE70120ED
:100DF000DBE700BFB400002010B584B00846114600
:100E00001A46FFF739FF10B1012004B010BD47F2B8
:100E10003052104B196801A809F018FD019B102BE6
:100E200001D00120F1E7029B022B01D00120ECE769
:100E300009F0B7FB47F23054044409F0B2FBA0427A
:100E400005D2FFF725FF0028F7D10020DDE70120BC
:100E5000DBE700BFB4000020154B1B7813F0010F37
:100E600021D110B588B0144603291ED8DFE801F05F
:100E700002050C13002008B010BD6846FFF712FFF2
:100E8000069B23600020F6E76846FFF70BFF079BF1
:100E900023800020EFE76846FFF704FF079B5B0A0B
:100EA00023600020E7E7032070470420E3E700BF4A
:100EB0000000002008B54FF0FF320121024B1868F6
:100EC00009F090FC08BD00BFB400002008B503493C
:100ED000034807F0F5FE034B187008BDD8840020C6
:100EE000A03E0108D484002008B54FF40051044806
:100EF00007F0CAFD08B9002008BD0120FCE700BFCB
:100F0000000802402C4B1B6803B17047F0B587B056
:100F1000294B01221A60294B9A6B42F001029A6315
:100F20009B6B03F001030093009B4FF683730193C7
:100F30000227029700260396032504950C240594A6
:100F400001A91F4807F0B0FC48F233130193029740
:100F500003960495059401A91A4807F0A5FC4CF2E4
:100F600003730193029703960495059401A916480B
:100F700007F09AFC4FF63F030193029703960495FE
:100F8000059401A9114807F08FFC282301930297CB
:100F900003960495059401A90D4807F085FC0823E4
:100FA0000193029703960495059401A9094807F057
:100FB0007BFC07B0F0BD00BFB80000200038024045
:100FC0000010024000180240000C024000140240D1
:100FD000001C02400008024000B589B01648174BBB
:100FE00003600023436083600421C160102202611A
:100FF000402242614FF4C0728261C3614FF40062CB
:1010000002624FF4805242628362022301930722FC
:101010000292039104920322059206930793694476
:1010200003F056FE10B909B05DF804FB5A210448DC
:10103000FFF7CAFAF7E700BF40890020400100A08F
:10104000B43E010808B5FFF75DFF08BD08B5FFF71E
:101050003DFF01F00DFA00F08BF9012009F0C5FA0F
:10106000FBE770477047704730B587B001AC064D5D
:101070000FCD0FC42B682360002101A809F09BFA53
:10108000024B186007B030BD203E01087489002073
:1010900008B51548154B0360154B4360002383606A
:1010A0000122C260036143618361C361036203F093
:1010B0002FFE50B900210C4803F088FE50B90021E2
:1010C000094803F0B1FE50B908BD4D210948FFF7AA
:1010D0007BFAEFE754210748FFF776FAEFE75B2149
:1010E0000448FFF771FAEFE7C4890020005400407C
:1010F000FFEAC000CC3E010808B51548154B036057
:10110000154B4360002383600122C2600361436189
:101110008361C361036203F0FBFD50B900210C48F9
:1011200003F054FE50B90021094803F07DFE50B988
:1011300008BD6E210948FFF747FAEFE77521074818
:10114000FFF742FAEFE77C210448FFF73DFAEFE7AB
:1011500078890020005C0040FFEAC000CC3E010816
:1011600000B589B003681E4A934205D01D4A9342D8
:101170001CD009B05DF804FB4FF4407303931223B5
:10118000049301230593002306930423079303A9E3
:10119000154807F089FB154B1A6C42F400121A64CB
:1011A0001B6C03F400130193019BE2E74FF4C0733F
:1011B000039312230493012305930323069304232B
:1011C000079303A90A4807F06FFB084B1A6C42F417
:1011D00000021A641B6C03F400030293029BC8E72D
:1011E00000540040005C004000040240003802400F
:1011F000001C024000B58FB029482A4B0360002331
:1012000043608360C36003612822426109228261D6
:101210003522C2610B22026240F21522426240F284
:101220001B12826240F23522C26240F21D1202633A
:1012300080F8343080F8353080F8363003F0EAFE3C
:1012400020BB002201924FF4F071029103924FF4FF
:10125000887304930592FF20069007924FF4C060B4
:101260000890072009904FF040400A900B910C9392
:101270008DF834208DF835208DF8362001A90848E6
:1012800003F0BCFF38B90FB05DF804FB54210648E9
:10129000FFF79AF9D5E768210348FFF795F9F2E7D8
:1012A000108A002000680140D83E010802682A4BDD
:1012B0009A4200D0704770B586B003F550435A6C1F
:1012C00042F080625A645B6C03F080630093009B81
:1012D00010230193022502950024039404940E2602
:1012E000059601A91D4807F0DFFA4EF6FF7301933A
:1012F000029503940494059601A9194807F0D4FABD
:10130000F7230193029503940494059601A91548C7
:1013100007F0CAFA4FF480530193029503940494A2
:101320000923059301A9104807F0BEFA4FF446437C
:101330000193029503940494059601A90B4807F0C4
:10134000B3FA22460521582003F0F0F9582003F0A3
:101350001FFA06B070BD00BF0068014000100240D7
:1013600000240240002802400018024000200240F1
:1013700030B585B00021084609F01EFC1149002057
:101380000860114A1060114B1860114C114D029504
:10139000114D0195009020460AF0BEFB20460AF050
:1013A000FBFB94F82F3013F0040F07D108480AF024
:1013B0000BFC07480FF01AFF05B030BD20460AF0BD
:1013C000F1FBF6E7EC8A0020F08A0020F48A002086
:1013D000B88A002021AB0008911700082DE9F047DA
:1013E000334801F063FC00285ED1314B998FD3F86C
:1013F000409029B94FF000082D4B1B6B00213AE0BB
:10140000032204200AF04CFD80460028F4D0284B2B
:101410001F6B8246002421E0DAF8040040F2F45207
:10142000121B09EB0401304411F0BFFDFF68D7F82F
:101430000890A5F2F452361B06F2F4560024A518C3
:1014400040F2F4539D42E7D8DAF8040009EB0401B6
:10145000304411F0AAFDDAF800A02C46BAF1000FD2
:10146000CAD0BAF80A200026E9E71A6842F000421A
:101470001A60DB6801310E4A926B8A42F5D80C4B38
:1014800000229A631B6841F214029A5812F0800FEE
:1014900007D041F214028021995041F20802002144
:1014A00099504046BDE8F0874FF00008F9E700BFCB
:1014B000C8A3002038B505464FF0FF310B4B186824
:1014C00009F020F90028F7D101E0002CF4D02846DB
:1014D000FFF784FF04460028F7D02B692946984778
:1014E0000028F2D020460AF071FCEEE7BC00002094
:1014F0002DE9F84F8B462C4BDE6AD6F808A0002465
:101500002746BBF1000F32D03368002B35DBBBF828
:101510000A90002504EB090840F2F453984519D9C4
:10152000DBF8041040F2F452121B29440AEB0400C9
:1015300011F03BFDF6683368002B21DBD6F808A0DC
:10154000A8F2F4592D1B05F2F4553F1B07F2F4578E
:101550000024DFE7DBF804104A4629440AEB0400C4
:1015600011F023FD4F44DBF800B04446C9E739468B
:101570000D4801F00BFB002004E06FF0070001E0D4
:101580006FF00700084B1B6841F214029A5812F0E2
:10159000200F07D041F214022021995041F2040299
:1015A00000219950BDE8F88FC8A30020F0B58BB09A
:1015B0000446002309933D483D4A026001224260EF
:1015C00003828DF81C3080218DF81D10E1218DF8EB
:1015D0001E108DF81F308DF820308DF8213007A9AE
:1015E00041618261C3614FF40003036201F068FC52
:1015F00028B994F82F3043F0040384F82F302B4D92
:1016000004232C4A2C49284601F051FA04232B4A82
:101610002B49284601F084FA062384F828306B69A8
:101620001A7884F829205A7884F82A209A7884F83D
:101630002B20DA7884F82C201A7984F82D205B7915
:1016400084F82E3040F2DC53E38494F82F3043F0DA
:101650000A0384F82F300AA8002340F8103D012126
:1016600009F03AF8174B186001AE174F0FCF0FC6AD
:101670003B683360214601A808F09DFF284601F031
:1016800049FD09AA0B21284601F0A4FB099A42F062
:101690000B0209920B21284601F0D8FB09AA0B2165
:1016A000284601F097FB0BB0F0BD00BFC8A3002097
:1016B0000080024010A40020F88A0020788B0020CF
:1016C00048A30020BC000020343E01080268284BDB
:1016D0009A4200D07047F0B589B0A3F590431A6BD9
:1016E00042F000721A631A6B02F000720092009AC4
:1016F0001A6B42F080621A631A6B02F080620192E8
:10170000019A1A6B42F000621A631B6B03F00063CC
:101710000293029B4FF4D0430393022704970024C3
:101720000594032606960B25079503A9114807F093
:10173000BBF832230393049705940696079503A9F3
:101740000D4807F0B1F88623039304970594069695
:10175000079503A9094807F0A7F8224605213D206F
:1017600002F0E4FF3D2003F013F809B0F0BD00BF24
:1017700000800240001802400008024000000240C1
:1017800008B5024B186808F0F7FF08BDBC00002040
:1017900010B5044670B1732384F83030742384F894
:1017A0003130084B6361084BA3612046FFF7FEFE12
:1017B000002010BD054B40F23E220549054811F0BE
:1017C000AFFCE8E761FE0008F1140008E43E010800
:1017D000F83E0108083F010808B507F00BFA08BDFC
:1017E00003460D4A126862B10B4A10680B4A126830
:1017F0001268A2F500520344934206D8064A1360C9
:101800007047054A06491160EEE7064B0C221A6044
:101810004FF0FF30704700BFC000002008ED00E02F
:10182000B0010120A401012070B51646002405E096
:101830004D1C0878AFF3008001342946B442F7DB31
:10184000304670BD4FF0FF3070474FF400534B608F
:1018500000207047012070470020704770B50D468A
:101860001646002404E0AFF30080287001340135EF
:10187000B442F8DB304670BD08B50B480B4B036033
:10188000FF234360012282600023C3600261436141
:101890008361C361036203F007FD00B908BD4C21F9
:1018A0000348FEF791FEF9E7E0BB0020001000A01E
:1018B000383F01080268254B9A4200D070472DE955
:1018C000F04387B0224B9A6B42F002029A639B6B03
:1018D00003F002030093009B4FF00409CDF804903D
:1018E00002260296002503950324049409270597F0
:1018F0000DEB0901174806F0D7FF4023019302962C
:10190000039504940A230593DFF850800DEB090139
:10191000404606F0C9FFCDF8049002960395049462
:1019200005970DEB0901404606F0BEFF4FF46053EA
:10193000019302960395049405970DEB090106485F
:1019400006F0B2FF07B0BDE8F08300BF001000A0B2
:101950000038024000100240000C02400004024027
:1019600000B593B03C483D4B0360002343607F22A9
:101970008260FF22C26003614361836103F030FD36
:1019800000284BD100238DF830308DF831308DF8A0
:1019900032301093119301220CA92F4803F0ECFD73
:1019A000002840D101228DF82C208DF82D208DF8B3
:1019B0002E2000238DF82F300BA9274803F06EFD51
:1019C000002835D100238DF800308DF801308DF8D6
:1019D0000230019304930593069307930893012221
:1019E0008DF824204FF480730A9369461A4803F057
:1019F00043FE10BB01228DF824204FF400730A939C
:101A00006946154803F038FEE0B902220021124869
:101A100003F0E2FED8B913B05DF804FB4D21104885
:101A2000FEF7D2FDAEE75C210D48FEF7CDFDB9E72C
:101A300069210B48FEF7C8FDC4E77E210848FEF780
:101A4000C3FDD7E78A210648FEF7BEFDDDE79421F6
:101A50000348FEF7B9FDDEE72CBC0020002800405B
:101A6000483F01080268054B9A4200D07047044A7B
:101A7000136F43F400431367F8E700BF00280040EA
:101A80000038024008B52648264B03600023036354
:101A90004360C02242638363C36383600361436125
:101AA0008361214AC261C36043628362C3620822C8
:101AB0000264012242648364C364036543658365F1
:101AC000C265036603F0D8FE00BB1848184B0360DC
:101AD0000023036303224260C02242638363C36323
:101AE0000122826003618361C36043628362C362D7
:101AF0001821016442648364C3640365436583659C
:101B0000C265036603F0B8FE28B908BD5B21094829
:101B1000FEF75AFDD9E776210648FEF755FDF4E7B2
:101B2000D0BC0020045C014000EE02004CBC002050
:101B3000245C0140543F010810B588B00446026897
:101B4000224B9A4205D02268214B9A421FD008B0FE
:101B500010BD204B1B684BB91F4A516C41F400016A
:101B60005164526C02F400020192019A0133194A45
:101B70001360F02303930223049300230593069339
:101B80000A23079303A9154806F08EFEDBE7114BE5
:101B90001B684BB9104A516C41F400015164526CFE
:101BA00002F400020292029A01330A4A13604FF4CF
:101BB00080630393022304930023059306930A236F
:101BC000079303A9064806F06FFEC0E7045C0140D6
:101BD000245C0140C4000020003802400020024084
:101BE00000180240054B064A1A6000225A609A60AB
:101BF000DA601A615A619A61704700BF54BD0020D3
:101C0000002C01400268164B9A4200D07047F0B594
:101C100087B003F586335A6C42F400625A645B6CF9
:101C200003F400630093009B4FF4F85301930227E1
:101C3000029700260396032504950C24059401A918
:101C4000084806F031FE0423019302970396049599
:101C500005940DEB0301044806F026FE07B0F0BD25
:101C6000002C014000080240000C024008B50C485E
:101C70004FF040230360002343608360C36003612F
:101C800043618361C36103624362836204F076FF50
:101C900000B908BD4E210348FEF796FCF9E700BFE6
:101CA000D8BD0020603F01080368B3F1402F00D089
:101CB000704700B587B003F5FC331A6C42F48032EC
:101CC0001A641B6C03F480330093009B8023019300
:101CD000022302930023039304930823059301A98D
:101CE000024806F0E1FD07B05DF804FB000C02407D
:101CF00008B51148114B03604FF482734360002311
:101D000083604FF44072C260036143614FF400721C
:101D10008261C3610362436283620722C26203631A
:101D20000823436304F062FF00B908BD5121044851
:101D3000FEF74AFCF9E700BF24BE0020003800404F
:101D4000703F01080268154B9A4200D0704770B589
:101D500086B003F500331A6C42F480421A641B6C9F
:101D600003F480430093009B022501950295002413
:101D7000039404940526059601A9094806F094FDEC
:101D80004FF440430193029503940494059601A9EE
:101D9000044806F089FD06B070BD00BF0038004061
:101DA000002002400004024000B589B019481A4BD7
:101DB0000360002343608360C36003614361836108
:101DC00005F004F9A0B908A94FF4805341F8103D7B
:101DD000104805F0FBF988B900230193029303939F
:101DE00001A90C4805F0D0FA70B909B05DF804FB00
:101DF00040F225110948FEF7E7FBE4E740F22B111A
:101E00000648FEF7E1FBE7E740F233110348FEF72F
:101E1000DBFBEAE788BE0020000401407C3F0108AC
:101E200086B00368234A934216D0B3F1804F1FD087
:101E3000214A934228D0214A934230D0204A9342EB
:101E400014D1204B5A6C42F002025A645B6C03F0CE
:101E500002030593059B09E01A4B5A6C42F00102FC
:101E60005A645B6C03F001030193019B06B0704759
:101E700003F50E331A6C42F001021A641B6C03F076
:101E800001030293029BF1E70E4B1A6C42F002022F
:101E90001A641B6C03F002030393039BE6E7094BF0
:101EA0001A6C42F008021A641B6C03F008030493D6
:101EB000049BDBE70000014000040040000C0040F0
:101EC00000040140003802400268094B9A4200D0E9
:101ED000704782B003F508331A6C42F040021A646E
:101EE0001B6C03F040030193019B02B0704700BFDD
:101EF0000018004000B587B003682C4A93420ED00A
:101F0000B3F1804F1AD02A4A934226D0294A9342ED
:101F100030D0294A93423AD007B05DF804FB4FF421
:101F200080730193022302930023039304930123FC
:101F3000059301A9214806F0B7FCEDE74FF40043F3
:101F40000193022302930023039304930123059337
:101F500001A91A4806F0A8FCDEE71023019302232A
:101F60000293002203920492059301A9144806F0FB
:101F70009BFCD1E7012301930223029300220392E9
:101F80000492059301A90F4806F08EFCC4E7402394
:101F900001930223029300230393049309230593DF
:101FA00001A9094806F080FCB6E700BF0000014027
:101FB00000040040000C00400018004000000240F7
:101FC0000004024000200240001C024000B59BB00B
:101FD0003748384B0360002343608360C36003616C
:101FE0004361836104F0F2FF002842D11AA94FF443
:101FF000805341F8103D2E4805F0E8F800283DD107
:102000002B4804F0FCFF00283DD1002313931493C8
:10201000159313A9264805F0B7F9002838D1602395
:102020000C9300220D920E920F9210921192129226
:102030000CA91F4805F020FA00282ED10023019397
:1020400002930393049305934FF40052069207936F
:1020500008934FF0007209920A930B9301A9144858
:1020600005F0BEF9F0B91248FFF744FF1BB05DF868
:1020700004FB51211048FEF7A7FAB7E757210E4895
:10208000FEF7A2FABCE75C210B48FEF79DFABCE71D
:1020900064210948FEF798FAC1E770210648FEF767
:1020A00093FACBE780210448FEF78EFADBE700BF06
:1020B00048BF0020000001407C3F010800B58FB000
:1020C00025484FF080430360002343608360C36072
:1020D0000361836104F07AFF28BB0EA94FF480539B
:1020E00041F8103D1C4805F071F808BB1A4804F08F
:1020F00086FF10BB00230793099307A9164805F034
:1021000043F9F8B9602300930022019202920492ED
:102110006946114805F0B0F9C8B90F48FFF7EAFE63
:102120000FB05DF804FB95210C48FEF74DFAD4E79B
:102130009B210A48FEF748FAD8E7A0210748FEF796
:1021400043FAD7E7A7210548FEF73EFADAE7B021C0
:102150000248FEF739FAE0E788BF00207C3F01081B
:1021600000B58FB02548264B036000234360836091
:10217000C3600361836104F029FF28BB0EA94FF4FB
:10218000805341F8103D1D4805F020F808BB1B485E
:1021900004F035FF10BB00230793099307A91748E4
:1021A00005F0F2F8F8B96023009300220192029240
:1021B00004926946114805F05FF9C8B90F48FFF766
:1021C00099FE0FB05DF804FBC5210E48FEF7FCF93F
:1021D000D4E7CB210B48FEF7F7F9D8E7D02109481F
:1021E000FEF7F2F9D7E7D7210648FEF7EDF9DAE76F
:1021F000E0210448FEF7E8F9E0E700BF08BF00204F
:10220000000400407C3F010800B58FB02748284BF0
:102210000360002343608360C3600361836104F053
:10222000D5FE30BB0EA94FF4805341F8103D1F4836
:1022300004F0CCFF10BB1D4804F0E1FE18BB0023E6
:102240000793099307A9194805F09EF808BB602376
:10225000009300230193029304930C2269461348D0
:1022600005F00AF9D8B91148FFF744FE0FB05DF840
:1022700004FBF5210F48FEF7A7F9D3E7FB210D4832
:10228000FEF7A2F9D7E74FF480710A48FEF79CF9F0
:10229000D5E740F207110748FEF796F9D7E74FF464
:1022A00088710448FEF790F9DDE700BFC8BE002042
:1022B000000C00407C3F010800B589B01448154B64
:1022C0000360002343608360C3600361836104F0A3
:1022D00096FE80B960230193002202920392059238
:1022E00001A90B4805F0C8F858B90948FFF702FEE4
:1022F00009B05DF804FB4FF4A2710748FEF764F9DA
:10230000E8E740F24D110448FEF75EF9EDE700BF43
:10231000C8BF0020001800407C3F010808B50C48E9
:102320000C4B03604FF4E133436000238360C360D0
:1023300003610C2242618361C3610362436205F061
:102340009EFB00B908BD4F210348FEF73DF9F9E7B0
:1023500008C0002000100140883F010808B50C4863
:102360000C4B03604FF4E133436000238360C36090
:1023700003610C2242618361C3610362436205F021
:102380007EFB00B908BD64210348FEF71DF9F9E79B
:1023900078C0002000140140883F010870B588B063
:1023A0000368224A934204D0214A934224D008B0C1
:1023B00070BD204B5A6C42F010025A645B6C03F003
:1023C00010030193019B80230393022604960024AB
:1023D000059406940725079503A9174806F064FAA3
:1023E0004FF400730393049605940694079503A98C
:1023F000124806F059FADAE70E4B5A6C42F0200206
:102400005A645B6C03F020030293029BC023039386
:1024100002230493002305930323069308230793C1
:1024200003A9074806F040FAC1E700BF00100140C9
:102430000014014000380240000402400000024045
:102440000008024004290CD0052902D0022904D03A
:102450007047064B03221A707047044B02221A7011
:102460007047024B01221A70F2E700BFC80000203B
:1024700010B5074C0122074920460FF0D1FD06494F
:1024800020460FF001FE20460FF042FE10BD00BFB7
:10249000E8C0002045240008140000200368B3F1C0
:1024A000A04F00D0704710B588B04FF4E0530393AD
:1024B0000223049300240594032306930A2307931D
:1024C00003A9104806F0F0F90F4B5A6B42F0800256
:1024D0005A635A6B02F080020192019A5A6C42F4DC
:1024E00080425A645B6C03F480430293029B224651
:1024F0000521432002F01AF9432002F049F908B0FF
:1025000010BD00BF000002400038024008B5D0F8FE
:1025100094020FF002FF08BD08B5D0F894020FF046
:1025200005FF08BD08B5D0F894020FF01AFF08BDEA
:1025300008B5D0F894020FF036FF08BD90F8BC3310
:10254000012B01D00020704710B504461048C0F898
:102550009442C4F8C0034FF0A04303600823836093
:102560000323C3600023036102228261C36100F080
:102570007FFE40B9064801F08BFB014620460FF074
:10258000C9FE002010BDDB210248FEF71DF8F1E76F
:10259000B8C40020943F010808B5D0F8C00301F08A
:1025A0003DFB18B1022803D0022008BD0020FCE743
:1025B0000120FAE708B5D0F8C00301F045FB18B1D7
:1025C000022803D0022008BD0020FCE70120FAE722
:1025D00008B5D0F8C00301F060FB18B1022803D0A1
:1025E000012008BD0020FCE70220FAE708B5D0F87A
:1025F000C00301F03BFB18B1022803D0022008BD44
:102600000020FCE70120FAE708B5D0F8C00301F08C
:1026100039FB08BD10B584B0D0F8C003BDF8204028
:1026200002949DF81C4001949DF81840009400F01D
:10263000D1FD20B1022804D0022004B010BD00203A
:10264000FBE70120F9E708B5D0F8C00300F0FEFD74
:1026500018B1022803D0022008BD0020FCE70120A9
:10266000FAE710B584B0D0F8C0039DF82440039475
:10267000BDF820400294079C01949DF818400094F6
:1026800000F032FE20B1022804D0022004B010BDB8
:102690000020FBE70120F9E708B5D0F8C00301F0FE
:1026A000EAFA08BD08B590F8BC33012B04D0C82065
:1026B00006F0A6FA002008BD084600F01FF8F6E76D
:1026C00010B4D0F8C03301EB8104E0000446184494
:1026D00090F83B0048B901EB8101C800034483F83E
:1026E000512000205DF8044B7047234483F85020AC
:1026F000F7E708B506F084FA08BD000008B528B170
:1027000000222021024806F0C6F908BD0122F8E7A0
:10271000000C024008B50B480B4B03600C23836090
:102720000023C360036101228261C36103624263CB
:1027300000F09EFD00B908BD4C210448FDF744FFA0
:10274000F9E700BF50C7002000000440A43F010883
:1027500008B508F0CBF808BD08B5024804F0E2FA65
:1027600008BD00BFE8C9002008B5024800F0ECFA37
:1027700008BD00BFC8A3002008B5024801F0ADF9AC
:1027800008BD00BFB8C4002008B5024801F0A5F993
:1027900008BD00BF50C7002008B5024802F0BBFCCE
:1027A00008BD00BF108A002008B5024802F00AF9EF
:1027B00008BD00BF9484002000B583B0214B1A6C83
:1027C00042F080521A641A6C02F080520092009A11
:1027D0005A6C42F480425A645B6C03F48043019368
:1027E000019B032001F090FF002211466FF00B00C7
:1027F00001F09CFF002211466FF00A0001F096FFE5
:10280000002211466FF0090001F090FF00221146EE
:102810006FF0040001F08AFF002211466FF0030000
:1028200001F084FF00220F216FF0010001F07EFF14
:1028300000220F214FF0FF3001F078FF03B05DF868
:1028400004FB00BF0038024000B589B000220146F9
:10285000362001F06BFF362001F09AFF154B1A6C01
:1028600042F010021A641B6C03F010030193019BE9
:1028700002A903A805F04CFC05F02AFC43000E4811
:10288000A0FB03239B0C013B0C480D4A026040F265
:10289000E732C260436000230361836004F096FB6B
:1028A00018B1012009B05DF804FB044804F02AFACD
:1028B000F8E700BF0038024083DE1B43E8C9002070
:1028C000001000405079137943EA002307480B5069
:1028D000D07893781B0443EA0063507843EA0023DE
:1028E00012781343024A8B50704700BF4080024069
:1028F00044800240016841F218028B5843F40053AF
:102900008B507047016841F218028B5843F0020364
:102910008B50704770B59EB0044629B14FF40063E8
:10292000C3604FF480438360E369002B68D14FF4A8
:102930008063079321680B68374A1A40A368E068F0
:1029400003430798034343F4007313430B60236866
:102950001D68012006F054F923681D602368402299
:102960005A6023685D68012006F04AF923685D60BB
:10297000236800259D602368DD602268936923F049
:10298000BE031B041B0C43F08003936123689E6904
:10299000012006F035F923689E612368DD61236814
:1029A000DD69012006F02CF92368DD61216841F220
:1029B00018054B59194A1A40194B13434B512368B8
:1029C0005E59012006F01CF923685E51236803F567
:1029D0008053144A1A60236803F580531D68012050
:1029E00006F00EF9236803F580531D60A369012BDF
:1029F00009D0626900212046FFF764FF1EB070BD58
:102A00000023079396E7216841F21C028858064B81
:102A100003438B50EDE700BF0F8120FF233FDEF81B
:102A2000040020028020C1024000010010B582B0E5
:102A30000446002301930268136843F008031360FF
:102A400003681B680193012006F0DAF82368019AF5
:102A50001A6002B010BD10B582B004460023019385
:102A60000268136843F00403136003681B68019352
:102A7000012006F0C5F82368019A1A6002B010BD63
:102A800030B583B0054600230193026841F2180473
:102A9000135943F48013135103681B590193012008
:102AA00006F0AEF82B68019A1A5103B030BDF0B4AD
:102AB00090F84540012C31D0012480F84540022493
:102AC00080F84440C162002401E0F96001349C4276
:102AD00017D265014F194FF480164E5140F2F4564B
:102AE00006FB0426BE60C6691EB94E5946F4400670
:102AF0004E515D1EA542E8D9651C01EB4515FD60F0
:102B0000E4E7026841F21003D150012380F8443019
:102B1000002380F845301846F0BC70470220FBE7E0
:102B2000F0B490F84540012C2ED0012480F84540A7
:102B3000022480F844408162002401E0E96001340D
:102B40009C4214D266018D194FF000478F5144F218
:102B5000F4566E6040F2F45606FB0426AE605E1E2C
:102B6000A642EBD9661C01EB4616EE60E7E7026869
:102B700041F20C03D150012380F84430002380F847
:102B800045301846F0BC70470220FBE790F845300E
:102B9000012B00F08580012380F84530022380F866
:102BA0004430B1B1C36A1A68002A1ADB30B440F26B
:102BB000F45291421DD93B4AA2FB0142920A40F2D3
:102BC000F45404FB121404B10132012A11D0002381
:102BD00047E0012380F84430002280F84520184661
:102BE0007047122380F84430002380F845300120DC
:102BF00070471A6842F040521A60C36AC1F30C0170
:102C00005960C26A136843F000431360C36ADB680B
:102C1000C362036841F214029A5812F0040F08D0FC
:102C200041F2140204219950026841F20403002188
:102C3000D150012380F84430002380F845301846F5
:102C400030BC7047C56A2C6844F080542C6011E099
:102C5000C56A2C6844F000442C60C46AE468C4620D
:102C600001339A42D5D9C56A2C6824F040542C60AF
:102C7000002BE7D0C46A40F2F4556560541E9C42B4
:102C8000E6D1C56A2C6844F000542C60064C04FB65
:102C9000021404F2F454C56AC4F30C046C60D7E760
:102CA000022070470BB002AC0CFAFFFF90F84530E1
:102CB000012B45D0012380F84530022380F84430B1
:102CC0000021836A1A68002A32DB032930D80131D7
:102CD0001A6802F44072B2F5007F09D01A6812F443
:102CE000407F0BD1826B01328263DB688362E8E74D
:102CF000036301228263DB688362E2E74363826BE2
:102D000001328263012A11D01A68C2F30D42043ADB
:102D1000C263026B92680264DB688362012380F8FD
:102D20004430002380F84530184670470363EBE7D2
:102D3000012380F84430002280F84520184670476F
:102D4000022070477047704710B50446036841F28F
:102D500014029A5812F0400F11D141F214029B58FC
:102D600013F0010F19D1226841F214034FF480319E
:102D7000D1502268D35813F4004F1BD110BDFEF779
:102D8000FFFC226841F214034021D150012384F852
:102D90004430002384F84530E5E7FFF7D3FF21688E
:102DA000012341F214028B5084F84430002384F84C
:102DB0004530D8E72046FFF7C6FF226841F21403EA
:102DC0004FF40041D150012384F84430002384F8AB
:102DD0004530D3E7F8B590F84430DBB2822B33D0DE
:102DE00016460546822380F844300268136903F0D2
:102DF0001C03048AE402A4B223438C0104F4F864A3
:102E00001C4344F00104146105F0F4FE074614F07D
:102E1000010F10D005F0EEFEC01BB0F5803F02D2CE
:102E20002B681C69F3E7012385F84430002385F8FB
:102E30004530032007E02B685B699BB233600123B8
:102E400085F844300020F8BD0220FCE790F84430BB
:102E5000DBB2422B32D070B50546422380F84430B5
:102E60000068036903F01C032C8AE402A4B2234324
:102E70008C0104F4F8641C4344F0030492B24261F0
:102E80002B681C6105F0B6FE064614F0010F10D049
:102E900005F0B0FE801BB0F5803F02D22B681C69A4
:102EA000F3E7012385F84430002385F845300320FB
:102EB00003E0012385F84430002070BD02207047F4
:102EC00070B582B000230193002800F00D81044604
:102ED00090F84430002B32D0844B5A6C42F480423C
:102EE0005A645B6C03F480430093009B804B5A68E8
:102EF00022F400025A605A68216A0A435A60236821
:102F000003F580531A6842F001021A6005F072FE60
:102F10000546236803F58052126812F0010F13D0A2
:102F200005F068FE401BB0F5FA7FF2D9032584F85E
:102F30004450002384F84530284602B070BD80F824
:102F40004530FEF7C3FBC7E71D6925F01C0505F0FA
:102F5000B9F8684B0344684A934256D845F00805CF
:102F600023681D614FF4004200212046FFF76EFFE9
:102F70000546002861D140F6FF7005F041FE636808
:102F8000002B00F0918005F035FE064601AA0121D4
:102F90002046FFF71FFF05F02DFE801B41F288330E
:102FA000984252D8019B13F0040FEFD04FF4805297
:102FB00000212046FFF74AFF002852D105F01AFEF3
:102FC000064601AA01212046FFF704FF05F012FE84
:102FD000801B41F2883398424BD8019B13F0200F9D
:102FE000EFD001AA10212046FFF7F4FE00284CD1B3
:102FF000019B13F0040F50D04FF40062E26013F015
:10300000020F4DD00023A3605EE03C4B03443C4ADA
:10301000934202D845F00C05A2E73A4B03443A4AE2
:1030200093429DD9394B0344394A934202D845F023
:10303000040595E745F0100592E701212046FFF7CA
:1030400069FC012584F8445076E701212046FFF70A
:1030500061FC012384F84430002384F845300325C3
:103060006AE701212046FFF755FC012584F844500A
:1030700062E701212046FFF74DFC012384F844302C
:10308000002384F84530032556E701212046FFF749
:1030900041FC012584F844504EE70022E260AEE78F
:1030A0004FF48043A3600FE0E268C2F3CF02A3684D
:1030B000C3F34F031A4300212046FFF7C7FE58B958
:1030C00040F6FF7005F09CFD00212046FFF722FC32
:1030D000012384F844302FE701212046FFF71AFC32
:1030E000012584F8445027E7012525E700380240F0
:1030F0000038014000D3CEFEBFE1E40040F1E9FD1D
:103100003F787D0100796CFCFF596202001F0AFACA
:103110007FF0FA0238B590F84530012B1AD00446FA
:10312000012580F84550022380F84430FFF77EFCEB
:103130002046FFF790FC2046FFF7A2FC2046FFF751
:10314000D9FB2046FFF7DEFB84F84450002084F8CA
:10315000450038BD0220FCE7F8B50668346A04F083
:103160000F07C4F34343C4F30A14022B2ED16CB3EC
:1031700007EB8702D3000344596C39B30546224656
:10318000304600F047FEBA003A44D3002B445A6C54
:1031900022445A64DA6C2244DA6406EB4713D3F80B
:1031A00010150B4A0A408AB1D3F8002522F080425C
:1031B00042F00042C3F80025BB00D919CA002A44D6
:1031C00092F8503083F0010382F85030F8BD00BF10
:1031D0000000F81F2DE9F04184B09DF828709DF89B
:1031E0002CC0BDF830E090F89042012C2CD0054660
:1031F000012085F8900288004618F4002C4400262F
:1032000084F83D6084F83830A4F840E084F8391040
:1032100084F83FC002F07F0884F83A804FEAD21861
:1032200084F83B800844C4002C4484F83C70CDF8FA
:1032300008E0CDF804C00097286800F0E1FE85F8AA
:10324000906204B0BDE8F0810220FAE790F8903275
:10325000012B0BD010B50446012380F89032006892
:1032600000F043FF002084F8900210BD0220704758
:10327000002837D0F0B58BB00646032380F8913292
:10328000FFF70CF9306800F06FFD344654F810CBAE
:103290006D460FCC0FC50FCC0FC594E8030085E831
:1032A0000300371D97E80E00604600F019FD01216C
:1032B000306800F05FFD344654F810CB6D460FCCFB
:1032C0000FC50FCC0FC594E8030085E8030097E80D
:1032D0000E00604600F018FE012386F891320020AF
:1032E0000BB0F0BD01207047F8B59DF81870BDF81F
:1032F00020608D000D44EC00044484F83B2084F8E9
:103300003F306FB901EB8105EC000444032584F8DC
:103310004250032B00F29580DFE803F00A8C2E5D0B
:1033200001EB8105EC000444022584F84250F0E7EB
:10333000012F08BF002A40F0848036B901EB8102DA
:10334000D3000344012283F8512001EB8102D30012
:10335000034493F851303BB901EB8102D30003449D
:10336000002283F842206CE001EB8102D300034489
:10337000022283F8422064E0B2B901EB8102D3005B
:10338000034493F851303BB901EB8102D30003446D
:10339000002283F8422054E001EB8102D300034471
:1033A000022283F842204CE001EB8102D300034467
:1033B00093F850303BB901EB8102D3000344002263
:1033C00083F842203DE001EB8102D3000344022256
:1033D00083F8422035E0B2B901EB8102D300034407
:1033E00093F851303BB901EB8102D3000344002232
:1033F00083F8422025E001EB8102D300034402223E
:1034000083F842201DE001EB8102D300034493F8CE
:1034100050303BB901EB8102D3000344002283F812
:1034200042200EE001EB8102D3000344022283F824
:10343000422006E001EB8102D3000344002283F81E
:1034400042208A005418E3000344079C5C649E6495
:10345000002483F85C40DC6483F8391083F85D4015
:103460001144CB0003F13801027C0144006800F0F4
:10347000B9FEF8BD7047704730B583B005460468A3
:10348000D4F840340193D4F840340093009B23F0E7
:103490002E030093019B13F0020F07D0019B13F042
:1034A000010F28D1009B43F002030093019B13F00E
:1034B000080F13D0009B43F008030093019B13F007
:1034C000040F34D0AB69022B1CD0EB68032B29D03E
:1034D0002846FFF7CFFF2846FFF71EF8019B13F0A1
:1034E000200F03D0009B43F020030093009BC4F8FF
:1034F000403403B030BDA36923F00053A361FFF74C
:103500000BF8CFE7019B03F4C023B3F5802F04D061
:103510000121286800F09AFCDAE70221286800F00F
:1035200095FCD5E74EF66022C4F80424D0E728467F
:10353000FFF7A1FFD4F8403423F02E03C4F8403441
:103540002A68936943F000539361C7E7F8B50646CC
:103550000D46076807EB411707F5A064A36813F051
:10356000040F3FD00423A360E36843F00203E36049
:10357000A36813F4007F6BD1A36813F0010F00F070
:103580009080336963B1AB005919CA003244916C21
:103590002269C2F31202891A2B44DA003244D16440
:1035A000AA002A44D3003344012283F85D2000217D
:1035B0009965A26093F83F20022A14BF00230123DB
:1035C0008A4208BF0123002B4ED1032A57D0AB00FB
:1035D0005919CA00324492F8503083F0010382F83E
:1035E0005030F8BDA36813F0200F02D02023A36051
:1035F000BEE7A36813F0080F17D1A36813F4806F18
:10360000B6D0E36843F00203E360006800F06DFDAC
:103610001023A36005EB8502D3003344082283F80E
:103620005D204FF48063A360A2E7E36843F00203E8
:10363000E36001EB8102D3000344052283F85D209F
:103640001023A3600823A360006800F04EFD8FE7FD
:10365000E36843F00203E3602946306800F045FD6B
:103660004FF40073A360BCE7E36843F00203E36038
:103670002946306800F039FD1023A360A7E7D7F88A
:10368000003543F00053C7F8003505EB8502D30041
:103690003344012283F85C2029463046FEF748FF78
:1036A00095E7A36813F0020F62D0E36823F00203EA
:1036B000E36005EB8502D300334493F85D30012BC2
:1036C00020D0052B32D0082B18BF062B3ED1AA00E4
:1036D0002A44D30033449A6D511C9965032A2DD98D
:1036E000AA002A44D300334400229A65042283F8B6
:1036F0005C20D7F8003523F0804343F00043C7F83F
:10370000003506E005EB8502D3003344012283F83F
:103710005C200223A36005EB8502D300334493F8B9
:103720005C2029463046FEF703FF5AE705EB850289
:10373000D3003344052283F85C20EAE705EB8502D9
:10374000D3003344022283F85C20D2E7032BE0D17C
:1037500005EB8502D3003344022283F85C20D7F8BE
:10376000003523F0804343F00043C7F80035D0E72D
:10377000A36813F0800F21D1A36813F0100F3FF45A
:1037800030AF05EB8502D3001A46334493F83F303F
:10379000032B2BD0022B14BF00220122002B14BFBD
:1037A000134601233BB105EB8502D30033440022CD
:1037B0009A6533694BB31023A36012E7E36843F0C3
:1037C0000203E360AB005919CA003244916D013124
:1037D00091652B44DA003244062382F85D30294695
:1037E000306800F082FC8023A360FAE605EB8502D6
:1037F000D300334400229A65E36843F00203E36098
:103800002946306800F071FCD5E705EB8502D3004E
:103810003344032283F85D20E36843F00203E3604E
:103820002946306800F061FCC5E7F8B5036803EB92
:10383000411303F5A064A26812F0040F24D10E46D0
:103840000546A26812F0200F25D02023A36001EBCB
:103850008102D3001A46034493F83D30012B19D15D
:103860008B000244002182F83D103344DA00024408
:10387000022382F85C30E36843F00203E3603146E0
:10388000006800F032FC05E00423A360E36843F025
:103890000203E360F8BDA26812F0400F34D1A268C1
:1038A00012F4007F4AD1A26812F0010F51D1A26830
:1038B00012F0080F62D1A26812F0100F6FD08A00C8
:1038C0000A44D300034400229A65032283F85D2052
:1038D00093F83D306BB901EB8102D300034493F8B8
:1038E0003C3033B901EB8102D3000344012283F859
:1038F0003D20E36843F00203E3603146286800F0AE
:10390000F4FB1023A360C5E78B005918CA000244DA
:10391000042182F85D10012182F83D103344DA0061
:10392000024400239365E36843F00203E3603146F9
:10393000006800F0DAFB4023A360ABE7E36843F0E4
:103940000203E360006800F0D0FB4FF40073A36053
:10395000A0E78F007A18D300034400229A65E36839
:1039600043F00203E360006800F0BFFB0123A360A3
:10397000B919C800284480F85D308BE70823A3609C
:10398000E36843F00203E360006800F0AEFB06EB7F
:103990008601C8002844052380F85D307AE7A268D4
:1039A00012F0800F38D1A26812F4806F45D1A2685E
:1039B00012F0020F3FF46EAFE26822F00202E26002
:1039C00001EB8101CA001146024492F85D20012AF0
:1039D00047D0032A64D0042A6AD0052A70D0082A66
:1039E00018BF062A46D1282202FB0602916D481C08
:1039F000906503296AD9282202FB065200219165AD
:103A0000042182F85C10D3F8002522F0804242F0B5
:103A10000042C3F800252DE0E36843F00203E360B1
:103A2000006800F062FB06EB8601CB002B44062207
:103A300083F85D208023A3602CE7E36843F0020352
:103A4000E360006800F051FB1023A3604FF4806333
:103A5000A36006EB8601CB002B44082283F85D208F
:103A600018E70B460344012283F85C2093F83F30AB
:103A7000022B0CD00223A36006EB8602D3002B445A
:103A800093F85C2031462846FEF752FD02E70B46CC
:103A9000034493F8512082F0010283F85120E9E7B2
:103AA00006EB8602D3000344022283F85C20E1E7A0
:103AB00006EB8602D3000344022283F85C20D9E798
:103AC000282303FB060383F85C20D3E7282202FBAC
:103AD0000652022182F85C1095E7F8B504460568A5
:103AE000284600F0AFF9012800D0F8BD206800F0AA
:103AF000A5F90028F9D0206800F0A0F910F4001F03
:103B000003D023684FF400125A61206800F096F940
:103B100010F4801F03D023684FF480125A6120688C
:103B200000F08CF910F0806F03D023684FF08062B2
:103B30005A61206800F082F910F0020F02D0236869
:103B400002225A61206800F079F910F0005F25D157
:103B5000206800F073F910F0807F31D1206800F008
:103B60006DF910F0080F2FD1206800F067F910F000
:103B7000007F30D1206800F061F910F0100FB4D050
:103B80002268936923F0100393612046FFF7E4FA5B
:103B90002268936943F010039361A6E7D5F8403497
:103BA00023F02E03C5F840342046FEF7BBFC01216C
:103BB000206800F04BF923684FF000525A61C7E7C4
:103BC0002046FFF759FCC9E72046FEF79FFC236813
:103BD00008225A61C8E7206800F082FA07460026EA
:103BE00004E0F1B22046FFF720FE0136A368B3429D
:103BF0000FD90123B3403B42F7D005EB4613D3F86E
:103C0000003513F4004FECD0F1B22046FFF79EFCD4
:103C1000EBE723684FF000725A61ABE738B590F8D4
:103C20009032012B0ED00446012580F89052006896
:103C300000F094F82946206800F045F9002084F847
:103C4000900238BD0220FCE790F89032012B0BD097
:103C500010B50446012380F89032006800F07CFB28
:103C6000002084F8900210BD0220704708B500685B
:103C700000F00CF908BD01EB8101CB00184490F86D
:103C80005C00704701EB8101CB001844C06C7047A9
:103C900008B5006800F0AFF908BD08B5006800F08D
:103CA000A1F908BD002301330C4A934211D80269DF
:103CB000002AF8DA036943F00103036100230133AA
:103CC000064A934207D8026912F0010FF7D100208B
:103CD0007047032070470320704700BF400D03006A
:103CE00084B010B5044603A880E80E00089B012BA1
:103CF0001ED1A36B23F48033A363E268164B1340F9
:103D0000E360E36823F44013E3600F9B012B0AD0C8
:103D10002046FFF7C7FF069B012B14D00020BDE80B
:103D2000104004B07047E36843F48013E360EFE7AA
:103D3000E36843F04003E3602046FFF7B3FF4FF42E
:103D40008033A363E7E7A36843F00603A360A36897
:103D500043F02003A360E1E7BFFFBDFF836843F0AA
:103D60000103836000207047836823F001038360B0
:103D70000020704708B5C36823F0C043C360012921
:103D800009D019B9C36843F08043C360322004F0FE
:103D900037FF002008BDC36843F00053C360F5E758
:103DA000890141F02001016100230133054A93425A
:103DB00005D8026912F0200FF7D1002070470320C8
:103DC000704700BF400D030010230361002301333F
:103DD000054A934205D8026912F0100FF7D100206E
:103DE00070470320704700BF400D030070B49DF87A
:103DF0000C4064B903339D1007E000EB023303F578
:103E0000805351F8046B1E600134AC42F5D300209E
:103E100070BC704703329210002393420CD210B44E
:103E200000F58054246841F8044B01339342F7D3E2
:103E300008465DF8044B7047084670474269806940
:103E400010407047406900F00100704710B400F561
:103E50008064D0F8003423F00303C0F80034D0F8B5
:103E6000003401F003021343C0F80034012905D0E7
:103E7000022907D000205DF8044B70474BF68033D1
:103E80006360F7E741F270736360F3E710B582B0E7
:103E90000446D0F840340193019B23F02E03019394
:103EA000019B43F48073C0F84034642004F0A8FE02
:103EB000019B23F48073C4F840340A2004F0A0FE70
:103EC000002002B010BD82B0D0F840340193019BB5
:103ED00023F02E030193019B13F4805F01D101298C
:103EE0000CD0019B13F4805F05D021B9019B23F412
:103EF0008053C0F84034002002B07047019B43F467
:103F00008053C0F84034ECE784B038B5044605A8C7
:103F100080E80E0025460023C4F8003EA36B43F45E
:103F20000013A363079B032B0ED0D4F8003423F0B7
:103F30000403C4F8003410212046FFF731FF204667
:103F4000FFF742FF002213E0B4F1A04FEDD0D4F808
:103F5000003443F00403C4F80034ECE705EB4213EB
:103F60004FF0FF31C3F808150021C3F80C150132DA
:103F7000069B9342F2D801212046FFF7A4FFC820F8
:103F800004F03EFE0023A3614FF0FF336361B4F100
:103F9000A04F17D04FF40073636203F18073A362E4
:103FA0000D4BC4F80031089B1BB9A36943F0100303
:103FB000A361A269094B1343A3610020BDE8384007
:103FC00004B070478023636203F5C003A362044B0F
:103FD000C4F80031E7E700BF0003E000080020A3B9
:103FE000E000400082B0D0F8403401930198C0F363
:103FF000414002B0704700F58060806880B2704731
:10400000F0B49DF8144000EB411505F5A0664FF0A3
:10401000FF37B760032C1CD8DFE804F0024D02150F
:1040200040F29D47F76012F0800F07D1B0F1A04F2A
:104030000FD0F76847F06007F7600AE0F76847F4C9
:104040008077F76005E040F29D67F76012F0800F1F
:104050002CD1D0F81864012707FA01F13143C0F8D8
:104060001814816941F0007181619B0503F0FE53D2
:10407000D10201F4F0410B4352B202F40042134367
:104080009DF81020022A21D000221343A20402F43A
:1040900040221343BDF81820C2F30A021343C5F8A7
:1040A0000035032C15D00020F0BC7047F76847F4AA
:1040B0008077F760CDE740F22527F76012F0800F98
:1040C000C7D0F76847F4C077F760C2E74FF4003213
:1040D000DBE7D5F8003543F00053C5F80035E2E7DB
:1040E00000F58060406980B2704710B400EB411168
:1040F00001F5A064D1F8003513F4402F2BD0D1F88E
:104100000035C3F38143022B25D0D1F8003543F0AD
:104110008043C1F80035D0F810349BB2002B48D151
:10412000D1F8003523F00043C1F80035D1F800354F
:1041300043F00043C1F80035D1F8003523F40043C3
:10414000C1F8003500230133B3F57A7F26D8226801
:10415000002AF8DB22E0D1F8003543F08043C1F8B3
:104160000035C36A9BB2EBB9D1F8003523F00043A8
:10417000C1F80035D1F8003543F00043C1F80035EF
:10418000D1F8003523F40043C1F800350023013392
:10419000B3F57A7F02D82268002AF8DB00205DF8A8
:1041A000044B7047D1F8003543F00043C1F80035A7
:1041B000F4E7D1F8003543F00043C1F80035EDE7EE
:1041C00000EB4111064AC1F81025D1F8003523F063
:1041D000804343F00043C1F800350020704700BF22
:1041E0000000088070B582B0B0F1A04F07D00B7905
:1041F0002BB912B94B79012B11D0012A13D00B69BD
:10420000EBB10C892344013BB3FBF4F39BB2B3F550
:10421000807F15D924020C614FF4807310E0497837
:10422000FFF7CEFF84E04B7800EB4313D3F80C4547
:1042300024F06004C3F80C4500234B71DFE7012331
:10424000CC781CB10C8904FB03F40C610C69C4F339
:1042500012043F4D05EAC34323438C7A640704F0FC
:10426000C0444D7800EB45152343C5F8103505F5DE
:10427000A0652AB1CC684B7800EB4313C3F8144512
:1042800000F58066B36813F0010F4B7800EB431321
:10429000D3F8004524F00054C3F800454B7800EBF8
:1042A0004313D3F800450CBF4FF0005500252C43B5
:1042B000C3F800454B7800EB4313D3F80055254C69
:1042C0002560256825F080452560CC78C4B1214D56
:1042D0002C6844F400442C601E4C256845F00045D1
:1042E00025602468C3F8004512BBCB7803BB0B697B
:1042F000F3B1CA79032A14D8DFE802F0081D081DBB
:10430000144D2C6824F400442C60E5E70333C26AA2
:1043100092B2C3F38F039A4203D2836943F020031E
:1043200083610B8A4A78C96800240094FFF75EFD18
:10433000002002B070BD0333326992B2C3F38F0321
:104340009A42EED2836943F080638361E9E700BF5C
:104350000000F81FCC00002038B50446FFF704FD2C
:1043600010212046FFF71CFD2046FFF72DFD0023FE
:104370000BE004EB4311D1F8002522F0802242F03B
:104380008042C1F800250133DBB20F2BF1D90023A5
:10439000184601E00130C0B20F2813D804EB4015D5
:1043A00005F5A061D5F8002522F4004242F0404214
:1043B000C5F800250133B3F57A7FEBD80A68002AE7
:1043C000F8DBE7E74FF0FF33C4F8143463612046AD
:1043D000FFF7C4FC002038BD494B5A6822F4403234
:1043E0005A605A6841680A435A600268536823F465
:1043F0008073536002685368016943EA0123536084
:104400000268536823F04073536002685368816800
:104410000B4353600268936823F40063936002685F
:104420009368C1680B439360826A364B9A4249D0C5
:104430000268936823F07063936002689368816AEE
:104440000B4393600268936823F0405393600268C3
:104450009368C16A0B4393600268936823F0020378
:10446000936002689368816943EA41039360036A39
:10447000002B32D10268536823F400635360026852
:10448000D36A23F47003D3620168CB6AC269013A2C
:1044900043EA0253CB620268936823F4007393608B
:1044A00002689368016B43EA412393600268936852
:1044B00023F48063936002689368416943EA81232F
:1044C000936070470268936823F07063936002689A
:1044D000936823F040539360BEE70268536843F447
:1044E000006353600268536823F4604353600168BB
:1044F0004B68426A013A43EA42334B60BFE700BF70
:10450000002301400100000F20B310B50446036CE6
:1045100043B1236C13F0100F0AD00120002384F85C
:104520003C3010BD436480F83C30FCF77DFAF0E786
:10453000226C094B134043F0020323642046FFF72B
:104540004BFF00206064236C23F0030343F001035E
:104550002364E3E701207047FDEEFFFF30B482B033
:104560000023019390F83C30012B00F0C080012320
:1045700080F83C300B68092B22D90568EA689BB2A9
:1045800003EB43031E3B072404FA03F322EA03036D
:10459000EB600B68574A93420BD00568EA688C6859
:1045A0009BB203EB43031E3B04FA03F31343EB609C
:1045B0001BE00268D3688C6843EA0463D36014E0AC
:1045C00005682A699BB203EB4303072404FA03F34B
:1045D00022EA03032B6105682A698C680B8803EBC8
:1045E000430304FA03F313432B614B68062B24D8CF
:1045F00005686A6B03EB8303053B1F2404FA03F38E
:1046000022EA03036B6305686A6B4B6803EB830361
:10461000053B0C8804FA03F313436B630268364BC3
:104620009A423AD00268344B9A423FD0002380F835
:104630003C30184602B030BC70470C2B16D80568C9
:104640002A6B03EB8303233B1F2404FA03F322EAC0
:1046500003032B6305682A6B4B6803EB8303233B3F
:104660000C8804FA03F313432B63D7E70568EA6A5F
:1046700003EB8303413B1F2404FA03F322EA030301
:10468000EB620568EA6A4B6803EB8303413B0C88E5
:1046900004FA03F31343EB62C0E70B68122BC1D19A
:1046A000164A536843F480035360BBE70B68114A12
:1046B000112B18BF9342B9D1104A536843F4000339
:1046C00053600A680B4B9A42B0D10D4B1B680D4AE0
:1046D000A2FB03239B0C03EB83035A00019202E02D
:1046E000019B013B0193019B002BF9D19EE7022026
:1046F000A0E700BF1200001000200140002301408D
:104700000400002083DE1B430649CB6823F4E063EA
:104710001B041B0C000200F4E0600343024A1A432E
:10472000CA60704700ED00E00000FA0530B4154B98
:10473000DB68C3F30223C3F10704042C28BF04245D
:104740001D1D062D14D9033B4FF0FF3505FA04F467
:1047500021EA0401994005FA03F322EA030319430D
:10476000002807DB0901C9B2074B195430BC704758
:104770000023E9E700F00F000901C9B2034B195407
:10478000F4E700BF00ED00E000E400E014ED00E01D
:1047900000F01F02400901239340024A42F82030F2
:1047A000704700BF00E100E00138B0F1807F0AD21D
:1047B000064B5860064AF02182F8231000209860CA
:1047C00007221A6070470120704700BF10E000E028
:1047D00000ED00E0042805D0054A136823F0040327
:1047E00013607047024A136843F004031360704774
:1047F00010E000E0002838D010B50446437F1BB31A
:104800000223637723791BBB2368194A5A61226804
:10481000936823F018039360637913BB23684FF008
:10482000FF321A612268936823F0600361690B43C9
:1048300093602268936823F08003A1690B4393601F
:1048400001236377002010BD0377FCF735F9D7E724
:10485000E268A168204600F00DF80028DCD00120B5
:10486000F1E7236822691A61DCE70120704700BF85
:10487000B71DC10410B41F2300E0234621FA03F43E
:1048800014F0010F03D15C1E002BF6D12346102A31
:1048900013D0182A0DD0082A13D003685961016873
:1048A0008B6823F018031A438A6000205DF8044BDC
:1048B0007047062BF1D90120F8E7072BEDD901202D
:1048C000F4E70F2BE9D90120F0E70000002844D0DD
:1048D00010B5044690F83530002B2ED0022384F812
:1048E0003530226811681E4B0B4013602268116836
:1048F000636860690343E068034320690343A06879
:104900000343A0690343206A0343606A0343A06A28
:104910000343E06A0343206B03430B431360636864
:10492000102B0DD02268D36843F01E03D360002003
:10493000E064012384F8353010BDFCF7F3F8CDE7CF
:10494000237F627F43EA0223A27F43EA0243E17F9F
:10495000226843EA01639361E4E70120704700BFE6
:1049600007F0E0FF38B310B5044690F83930EBB1EA
:10497000022384F839302268136823F440336168D5
:104980000B4313602268536B23F00703A1680B43AA
:1049900053632268116C094B0B40E1680B431364AD
:1049A0000020E063012384F8393010BD80F83830EE
:1049B000FCF736F9DCE70120704700BF00C0FFFFBD
:1049C0007047704770B5044603685D681E6815F04F
:1049D000010F16D016F4807F13D01A6822F480726B
:1049E0001A60C36B43F00103C363036801229A603A
:1049F000042380F83930002380F83830436903B14C
:104A0000984715F0200F18D016F4005F15D02268D3
:104A1000136823F400531360236820229A60E36B29
:104A200043F00203E363042384F83930002384F85D
:104A3000383063690BB12046984715F0080F18D03D
:104A400016F4006F15D02268136823F40063136016
:104A5000236808229A60E36B43F00403E3630423B2
:104A600084F83930002384F8383063690BB120466C
:104A7000984715F0040F02D016F4806F20D115F07E
:104A8000020F16D016F4007F13D02268136823F4A7
:104A900000731360236802229A60E36BE3630123CF
:104AA00084F83930002384F8383023690BB120466C
:104AB000984715F0100F02D016F4805F0CD170BD2E
:104AC0002268136823F480631360236804229A60C9
:104AD0002046FFF775FFD2E72268136823F480535E
:104AE0001360236810229A60E36BE363012384F868
:104AF0003930002384F838302046FFF762FFDEE7C4
:104B000090F83830012B59D030B4012380F8383078
:104B1000022380F8393000EB0113DA698B1C1B018A
:104B2000C35842EA0343093A012A1ED98A1C00EB02
:104B30000212526843EA026341BB0468656A204A74
:104B40002A4013436362026800EB01139C6994617D
:104B5000DB69093B012B10D9012380F83930002390
:104B600080F83830184630BC70478A1C00EB0212BF
:104B7000526802F07F421343DEE7023100EB01117D
:104B80004B68026823F07F439362E5E70468E569B8
:104B90000B4A2A401343E361026800EB01139C694E
:104BA0001461DB69093B012BD6D8023100EB0111FE
:104BB0004B68026823F07F431362CDE70220704701
:104BC000F0FFFC0030B40B68012B18D00368194AC1
:104BD0001A404B688C682343CC6823430C692343F9
:104BE0004C6923438C692343CC6923430C6A2343D8
:104BF000496A0B4313430360002030BC70470468CC
:104C000024F4F844CB690A6A1A434B6A1A432243D4
:104C10004368084C1C404B688D682B43CD682B4380
:104C20000D692B434D692B4389690B432343026074
:104C30004360E1E70080FFFF30B4012A21D08268A1
:104C400002F070420B68013B4C68013C43EA0413DC
:104C50008C68013C43EA0423CC68013C43EA0433FA
:104C60000C69013C43EA04434C69013C43EA0453A8
:104C70008969013943EA016313438360002030BC32
:104C800070478368114C1C40CA68551E4B695A1EF8
:104C9000120542EA05322243C46804F070440B68EE
:104CA000013B4D68013D43EA05138D68013D43EA30
:104CB00005230D69013D43EA05438969013943EA4A
:104CC000016323438260C360D8E700BFFF0F0FFF7B
:104CD000D8B138B504460D4690F82C3083B1022384
:104CE00084F82C30211D2068FFF76CFF626829468C
:104CF0002068FFF7A1FF012384F82C30002038BD85
:104D000080F82D30FCF79EF9E9E70120704700009C
:104D1000002857D010B5044690F84130002B41D000
:104D2000242384F841302268136823F001031360C0
:104D30006368226823F0706313612268936823F428
:104D400000439360E368012B31D0A368226843F4E9
:104D500004439360E368022B2FD0226851681A4BFA
:104D60000B4353602268D36823F40043D360236964
:104D700062691343A169226843EA0123D360E369AE
:104D8000216A22680B4313602268136843F0010311
:104D9000136000206064202384F84130206384F88D
:104DA000420010BD80F84030FCF7DAF9B8E7A3689C
:104DB000226843F400439360CCE723684FF4006219
:104DC0005A60CAE7012070470080000290F8413025
:104DD000DBB2202B24D190F84030012B22D00123CC
:104DE00080F84030242380F841300268136823F0B3
:104DF000010313600268136823F480531360026890
:104E00001368194311600268136843F001031360CB
:104E1000202380F84130002380F840301846704746
:104E2000022070470220704790F84130DBB2202BFF
:104E300022D190F84030012B20D0012380F840305F
:104E4000242380F841300268136823F001031360C3
:104E50000268136823F4706343EA01211160026859
:104E6000136843F001031360202380F841300023CE
:104E700080F8403018467047022070470220704783
:104E8000F0B44D680468E368C3F30B431D44D201DA
:104E90001444D4F8883003F47043C4F888300B68A5
:104EA0000468E668C6F30B4633440133144443EA0E
:104EB0000543C4F88830CD680468E368C3F30A0387
:104EC0001D441444D4F88C3003F47043C4F88C307F
:104ED0008B680468E668C6F30A0633440133144459
:104EE00043EA0543C4F88C3003681344D3F8944074
:104EF00024F00704C3F89440036813440C69C3F812
:104F0000944091F831C091F832708E69056815446B
:104F1000D5F89C300024C5F89C4091F8303043EA25
:104F20000C2343EA07430568154443EA0663C5F8C2
:104F30009C3003681344D3F8985025F0FF05C3F85C
:104F40009850036813444D69C3F89850036813449C
:104F5000D3F8A0602D4D3540C3F8A050CD690E6A3E
:104F6000036813443543C3F8A05003681344D3F8CF
:104F7000AC50C3F8AC40036813444C6AC3F8AC406F
:104F80000B696BB1012B3AD0022B18BF042B38D020
:104F9000032B38D0072B01D0012302E0022300E0CD
:104FA000042304681444D4F8B05005F0E025C4F894
:104FB000B0508C6A03FB04F54C680E68A41B03FB1D
:104FC00004F303330468144443EA0543C4F8B030DF
:104FD00003681344D3F8B4500D4C2C40C3F8B440CC
:104FE00003681344C96AC3F8B41003681A44D2F8BA
:104FF000843043F00103C2F88430F0BC70470323CF
:10500000CFE70223CDE70223CBE700BFF8F8FFFF8D
:1050100000F8FFFF002877D038B5044690F8A1309B
:10502000002B6CD0022384F8A1302268936923F00E
:105030007043936121688A696368A0680343E068EC
:1050400003432069034313438B6121688A682F4B14
:105050001A408A60656920688268A16941EA054151
:105060000A4382602168CA681A40CA60E5692068FC
:10507000C268216A41EA05410A43C26021680A699F
:105080001A400A61656A20680269A16A41EA05411D
:105090000A43026121684A6913404B61E06A216852
:1050A0004B69226B42EA004213434B6194F835008E
:1050B00094F836301B042168CA6A02F07F42CA6243
:1050C0002168CA6A43EA002394F834000343134377
:1050D000CB622268536B43F0040353632268536B23
:1050E00043F0020353632268936943F00103936121
:1050F0000020C4F8A400012384F8A13038BD80F852
:10510000A030FCF7D3F88DE70120704700F800F0DD
:1051100070477047704710B5044603689A6B12F0E9
:10512000040F03D09A6B12F0040F1BD123689A6B03
:1051300012F0020F03D09A6B12F0020F27D12368EE
:105140009A6B12F0010F03D09A6B12F0010F34D159
:1051500023689A6B12F0080F03D09A6B12F0080FB5
:105160003BD110BD5A6B22F004025A63036804223B
:10517000DA63D0F8A43043F00103C0F8A43080F81B
:10518000A120002380F8A030FFF7C2FFCEE75A6BC2
:1051900022F002025A6323680222DA63D4F8A430B0
:1051A0001343C4F8A430042384F8A130002384F806
:1051B000A0302046FFF7ACFFC1E75A6B22F0010296
:1051C0005A6322680123D36384F8A130002384F852
:1051D000A0302046FFF79DFFBAE75A6B22F0080285
:1051E0005A6323680822DA63012384F8A13000237C
:1051F00084F8A0302046FFF78DFFB2E790F8A0308A
:10520000012B27D02DE9F04194460F4606464FF07A
:10521000010880F8A080022380F8A130342404FB28
:10522000020438340D460FCD0FC40FCD0FC40FCD7F
:105230000FC42B682360624639463046FFF720FED4
:105240003368C3F8248086F8A180002086F8A00087
:10525000BDE8F081022070472DE9F04105460F4678
:1052600016469846069C2B689B683B4214BF012358
:105270000023B34212D0B4F1FF3FF4D02CB103F0BD
:10528000B9FCA0EB0800A042EDD9042385F8413019
:105290006B6C43F001036B64012000E00020BDE86B
:1052A000F08181647047000030B583B0044603F09C
:1052B000A1FC002C54D0054694F84030DBB2012B01
:1052C00050D0012384F8403094F84130002B3CD07A
:1052D00021680B6823F4F853A268013A43EA0223D9
:1052E0000B60A36C00932B46002220212046FFF781
:1052F000B3FF024618BB206803681B491940656864
:10530000E36843EA0563E5692B43256A2B430B43B6
:10531000036020684168154B0B402569616941EACB
:105320000541A56929430B43436021680B6843F09D
:1053300001030B6000236364012384F841300023E0
:1053400084F84030104603B030BD84F84030204629
:10535000FCF7B0FA41F288312046FFF7A2FFB7E729
:105360000122EFE70222EDE72FFFFF00FEF8E0FF4A
:1053700038B504460268D36823F0A003D36003F075
:1053800039FC05462368DB6813F0200F07D103F0D2
:1053900031FC401BB0F57A7FF4D9032000E00020F7
:1053A00038BD38B50368DA6812F0400F01D000202C
:1053B00038BD04464FF0FF32DA6003F01BFC0546AF
:1053C0002368DB6813F0400F07D103F013FC401B88
:1053D000B0F57A7FF4D90320EAE70020E8E700007F
:1053E00000284AD038B50446437F002B3AD0022328
:1053F00063772368CA225A62236853225A6220467E
:10540000FFF7CFFF0246002830D1216888681C4B87
:1054100003408B6020688168636825692B43656958
:105420002B430B4383602368E168196121680B6992
:10543000A06843EA00430B612168CB6823F0800336
:10544000CB602168CB6C23F00803CB642168CB6C64
:10545000A0690343CB642368FF215962012363776A
:10546000104638BD0377FCF7FDFAC0E72368FF223A
:105470005A62042363770122F2E701221046704743
:10548000BFFF8FFF002302E001330A38C0B20928B2
:10549000FAD81B01DBB218437047000070B5037FD8
:1054A000012B64D001230377022343773AB94B7869
:1054B00013F0100F03D003F0EF030A334B700E46C6
:1054C0000446002A30D1C878FFF7DCFF0504707865
:1054D000FFF7D8FF45EA0025B078FFF7D3FF054373
:1054E000307845EA40352368CA225A62236853223D
:1054F0005A622046FFF755FF064600BB22681D4B47
:105500002B4053602268D36823F08003D360236864
:105510009B6813F0200F1CD02368FF225A620123DE
:1055200063770023237712E0C8784D782D0245EA8F
:10553000004588780543087845EA4035D3E7236875
:10554000FF225A6204236377002323770126304623
:1055500070BD2046FFF70CFF0028DDD02368FF2236
:105560005A6204236377002323770126EFE702269C
:10557000EDE700BF3FFFFF00F8B5037F012B76D0BA
:105580000D4604460123037702234377002A44D1C2
:1055900003689B6813F0400F01D100230B73287838
:1055A000FFF770FF06046878FFF76CFF46EA0026F5
:1055B000A878FFF767FF0643287B46EA0046236882
:1055C000CA225A62236853225A622046FFF7E9FE34
:1055D0000746002833D12268264B334013602268E7
:1055E000936823F48023936021688B682A69686933
:1055F000024313438B602268D36823F08003D36097
:1056000023689B6813F0200F23D02368FF225A627F
:10561000012363770023237719E003689B6813F065
:10562000400F01D100230B7328786E78360246EACA
:105630000046A8780643287B46EA0046BFE7236871
:10564000FF225A6204236377002323770127384619
:10565000F8BD2046FFF78CFE0028D6D02368FF2235
:105660005A6204236377002323770127EFE7022799
:10567000EDE700BF7F7F7F00F8B5037F012B00F0CF
:10568000A9800D4604460123037702234377002AAD
:105690004DD103689B6813F0400F01D100230B73B9
:1056A0002E6A2878FFF7EEFE07046878FFF7EAFE17
:1056B00047EA0027A878FFF7E5FE0743287B47EA7B
:1056C000004795F82400FFF7DDFE47EA0060064337
:1056D000AB691E436F68EB691F432368CA225A6295
:1056E000236853225A62AB6AB3F5807F39D02268AF
:1056F000936823F4007393602268936823F4005343
:10570000936003F077FA05462368DA6812F0020F17
:1057100050D103F06FFA401BB0F57A7FF4D92368BB
:10572000FF225A62032060770023237751E0036849
:105730009B6813F0400F01D100230B732A6A29786C
:105740006B781B0243EA0143A9780B43297B43EAA8
:10575000014395F8241043EA01631343AE691E43E5
:10576000B8E72268936823F4807393602268936893
:1057700023F48053936003F03DFA05462368DA680A
:1057800012F0010F0DD103F035FA401BB0F57A7F0E
:10579000F4D92368FF225A6203206077002323771D
:1057A00017E0DE6123685F642268936843F48073C6
:1057B000936007E01E6223689F642268936843F445
:1057C000007393602368FF225A62012363770020ED
:1057D0002077F8BD0220FCE770B4047F012C27D0AD
:1057E00001240477022343770568AE68A3F60B0310
:1057F00033401943CA236B62036853255D62056811
:10580000EB6C23F00603EB640568EB6C1A43EA6467
:10581000036899600268936843F4006393600368C7
:10582000FF225A62447700230377184670BC704702
:105830000220FBE70E4B1B680E4AA2FB03231B0B47
:105840009B0001680A6822F480320A605A1E3BB14C
:1058500003681968134611F4803FF7D100207047A0
:10586000D0F8803043F04003C0F880300320704708
:10587000040000201BECCB95002800F0EB8070B5F5
:10588000044690F87D30002B00F0B980022384F8A4
:105890007D302046FFF7CEFFE368012B00F0B68095
:1058A000022B00F0B1800022A368022B00F0B08030
:1058B000032B00F0B080012B00F0B280002523689C
:1058C000654866498B4218BF834240F0AC80644B08
:1058D0001A60E36923B323685F49604A934218BFA3
:1058E0008B4200F0A380002023685E495E4A934209
:1058F00018BF8B4200F09F8000EB80004100E369FD
:105900005B02B1FBF3F1594BA3FB0123DB082362DC
:1059100003EB830042008A1A082A01D9013323626B
:105920006268022A14BF00230123002A08BF012352
:10593000002B00F08780E36B012B00F081804FF497
:10594000007621680B684A4A1A400A60226811688A
:105950006368206B0343606B0343A06B03433343D3
:105960002B43606A03432069034360690343206A51
:1059700043EA00530B431360226851683D4B0B40D0
:10598000536021684A68A369A06A0343E06A03433D
:1059900013434B6022689168374B0B40936020683B
:1059A0008268236C013B216D0B43A16C0B43E16CBE
:1059B0000B43616C013943EA01231343836022687E
:1059C000D36823F47D6323F00F031B041B0CD36007
:1059D0002068C268636DA16D0B43216E43EA0143E9
:1059E000E16D013943EA01231343C3600020C4F889
:1059F0008000012384F87D3084F87C0070BD80F83D
:105A00007C30FCF799F841E720224DE710224BE764
:105A10004FF4006553E742F001024FF400654EE792
:105A20004FF480654BE7154B1A6052E74FF40020A6
:105A300002F062FE58E74FF4801002F05DFE5BE773
:105A400000267EE7E36B012B01D0002679E74FF4B7
:105A5000007676E701207047045801402458014041
:105A600000580140045C0140245C0140CDCCCCCC0A
:105A700010C005FFF01FFFFF0080F8FF005C014031
:105A80000C4B1B680C4AA2FB03235A0A41F28833D1
:105A900003FB02F35A1E4BB1416B134611F0800F0A
:105AA000F8D040F2FF538363002070474FF000406E
:105AB000704700BF04000020D34D6210144B1B68D8
:105AC000144AA2FB03235A0A41F2883303FB02F370
:105AD0005A1ECBB1416B134611F0450FF8D0436B02
